{
  "contractName": "CaelumLottery",
  "abi": [
    {
      "constant": true,
      "inputs": [],
      "name": "poolAddress",
      "outputs": [
        {
          "name": "",
          "type": "address"
        }
      ],
      "payable": false,
      "stateMutability": "view",
      "type": "function"
    },
    {
      "constant": true,
      "inputs": [],
      "name": "lotteryDuration",
      "outputs": [
        {
          "name": "",
          "type": "uint256"
        }
      ],
      "payable": false,
      "stateMutability": "view",
      "type": "function"
    },
    {
      "constant": true,
      "inputs": [
        {
          "name": "",
          "type": "uint256"
        }
      ],
      "name": "participants",
      "outputs": [
        {
          "name": "",
          "type": "address"
        }
      ],
      "payable": false,
      "stateMutability": "view",
      "type": "function"
    },
    {
      "constant": true,
      "inputs": [],
      "name": "participantsCounter",
      "outputs": [
        {
          "name": "",
          "type": "uint256"
        }
      ],
      "payable": false,
      "stateMutability": "view",
      "type": "function"
    },
    {
      "constant": false,
      "inputs": [],
      "name": "renounceOwnership",
      "outputs": [],
      "payable": false,
      "stateMutability": "nonpayable",
      "type": "function"
    },
    {
      "constant": true,
      "inputs": [],
      "name": "owner",
      "outputs": [
        {
          "name": "",
          "type": "address"
        }
      ],
      "payable": false,
      "stateMutability": "view",
      "type": "function"
    },
    {
      "constant": true,
      "inputs": [],
      "name": "isOwner",
      "outputs": [
        {
          "name": "",
          "type": "bool"
        }
      ],
      "payable": false,
      "stateMutability": "view",
      "type": "function"
    },
    {
      "constant": true,
      "inputs": [],
      "name": "WINNER2",
      "outputs": [
        {
          "name": "",
          "type": "uint256"
        }
      ],
      "payable": false,
      "stateMutability": "view",
      "type": "function"
    },
    {
      "constant": true,
      "inputs": [],
      "name": "WINNER3",
      "outputs": [
        {
          "name": "",
          "type": "uint256"
        }
      ],
      "payable": false,
      "stateMutability": "view",
      "type": "function"
    },
    {
      "constant": true,
      "inputs": [
        {
          "name": "",
          "type": "address"
        }
      ],
      "name": "participantsList",
      "outputs": [
        {
          "name": "",
          "type": "uint256"
        }
      ],
      "payable": false,
      "stateMutability": "view",
      "type": "function"
    },
    {
      "constant": true,
      "inputs": [],
      "name": "WINNER1",
      "outputs": [
        {
          "name": "",
          "type": "uint256"
        }
      ],
      "payable": false,
      "stateMutability": "view",
      "type": "function"
    },
    {
      "constant": true,
      "inputs": [],
      "name": "lotteryStart",
      "outputs": [
        {
          "name": "",
          "type": "uint256"
        }
      ],
      "payable": false,
      "stateMutability": "view",
      "type": "function"
    },
    {
      "constant": true,
      "inputs": [],
      "name": "lotteryMinParticipants",
      "outputs": [
        {
          "name": "",
          "type": "uint256"
        }
      ],
      "payable": false,
      "stateMutability": "view",
      "type": "function"
    },
    {
      "constant": false,
      "inputs": [
        {
          "name": "newOwner",
          "type": "address"
        }
      ],
      "name": "transferOwnership",
      "outputs": [],
      "payable": false,
      "stateMutability": "nonpayable",
      "type": "function"
    },
    {
      "constant": true,
      "inputs": [],
      "name": "token",
      "outputs": [
        {
          "name": "",
          "type": "address"
        }
      ],
      "payable": false,
      "stateMutability": "view",
      "type": "function"
    },
    {
      "inputs": [],
      "payable": false,
      "stateMutability": "nonpayable",
      "type": "constructor"
    },
    {
      "payable": true,
      "stateMutability": "payable",
      "type": "fallback"
    },
    {
      "anonymous": false,
      "inputs": [
        {
          "indexed": true,
          "name": "previousOwner",
          "type": "address"
        },
        {
          "indexed": true,
          "name": "newOwner",
          "type": "address"
        }
      ],
      "name": "OwnershipTransferred",
      "type": "event"
    },
    {
      "constant": false,
      "inputs": [
        {
          "name": "_days",
          "type": "uint256"
        },
        {
          "name": "_participants",
          "type": "uint256"
        }
      ],
      "name": "resetLottery",
      "outputs": [],
      "payable": false,
      "stateMutability": "nonpayable",
      "type": "function"
    },
    {
      "constant": false,
      "inputs": [],
      "name": "participateLottery",
      "outputs": [
        {
          "name": "success",
          "type": "bool"
        }
      ],
      "payable": true,
      "stateMutability": "payable",
      "type": "function"
    },
    {
      "constant": false,
      "inputs": [],
      "name": "announceWinners",
      "outputs": [
        {
          "name": "",
          "type": "uint256"
        }
      ],
      "payable": false,
      "stateMutability": "nonpayable",
      "type": "function"
    },
    {
      "constant": false,
      "inputs": [],
      "name": "creditWinners",
      "outputs": [],
      "payable": false,
      "stateMutability": "nonpayable",
      "type": "function"
    }
  ],
  "bytecode": "0x608060405260018054600160a060020a031990811690915560028054909116905534801561002c57600080fd5b5060008054600160a060020a0319163317808255604051600160a060020a039190911691907f8be0079c531659141344cd1fd0a4f28419497f9722a3daafe3b4186f6b6457e0908290a360006003556109518061008a6000396000f3006080604052600436106100ed5763ffffffff60e060020a6000350416631755ff2181146100f85780631c2f9056146101295780632d97902f1461014057806335c1d349146101675780634572bc881461017f578063715018a6146101945780637d5c735a146101a95780638357f987146101c45780638da5cb5b146101e05780638f32d59b146101f55780639498ee8a1461020a5780639ed3f7861461021f578063aae59cf614610234578063b542d6b414610249578063c4fa867c1461026a578063cd8cc8441461027f578063ed7b0c5e14610294578063f2fde38b146102a9578063fc0c546a146102ca575b6100f56102df565b50005b34801561010457600080fd5b5061010d6103d9565b60408051600160a060020a039092168252519081900360200190f35b34801561013557600080fd5b5061013e6103e8565b005b34801561014c57600080fd5b506101556106b9565b60408051918252519081900360200190f35b34801561017357600080fd5b5061010d6004356106bf565b34801561018b57600080fd5b506101556106e7565b3480156101a057600080fd5b5061013e6106ed565b3480156101b557600080fd5b5061013e600435602435610757565b6101cc6102df565b604080519115158252519081900360200190f35b3480156101ec57600080fd5b5061010d61079e565b34801561020157600080fd5b506101cc6107ad565b34801561021657600080fd5b506101556107be565b34801561022b57600080fd5b506101556107c4565b34801561024057600080fd5b506101556107ca565b34801561025557600080fd5b50610155600160a060020a0360043516610837565b34801561027657600080fd5b50610155610849565b34801561028b57600080fd5b5061015561084f565b3480156102a057600080fd5b50610155610855565b3480156102b557600080fd5b5061013e600160a060020a036004351661085b565b3480156102d657600080fd5b5061010d61087a565b6005546004546000910142106102f457600080fd5b66b1a2bc2ec50000341461036957604080517f08c379a000000000000000000000000000000000000000000000000000000000815260206004820152601260248201527f57726f6e6720616d6f756e742073656e742e0000000000000000000000000000604482015290519081900360640190fd5b503360008181526008602052604081203490556009805460018181018355919092527f6e1540171b6c0c960b71a7020d9f60077f6af931a8bbf590da0223dacf75c7af909101805473ffffffffffffffffffffffffffffffffffffffff1916909217909155600380548201905590565b600254600160a060020a031681565b600154604080517f70a082310000000000000000000000000000000000000000000000000000000081523060048201529051600092839283928392600160a060020a0316916370a0823191602480830192602092919082900301818787803b15801561045357600080fd5b505af1158015610467573d6000803e3d6000fd5b505050506040513d602081101561047d57600080fd5b5051600154600a5460098054600098506064909404603281029750601e810296506014029450600160a060020a039092169263a9059cbb92919081106104bf57fe5b60009182526020808320909101546040805160e060020a63ffffffff8716028152600160a060020a039092166004830152602482018990525160448083019491928390030190829087803b15801561051657600080fd5b505af115801561052a573d6000803e3d6000fd5b505050506040513d602081101561054057600080fd5b5051151561054d57600080fd5b600154600b5460098054600160a060020a039093169263a9059cbb9290811061057257fe5b60009182526020808320909101546040805160e060020a63ffffffff8716028152600160a060020a039092166004830152602482018890525160448083019491928390030190829087803b1580156105c957600080fd5b505af11580156105dd573d6000803e3d6000fd5b505050506040513d60208110156105f357600080fd5b5051151561060057600080fd5b600154600c5460098054600160a060020a039093169263a9059cbb9290811061062557fe5b60009182526020808320909101546040805160e060020a63ffffffff8716028152600160a060020a039092166004830152602482018790525160448083019491928390030190829087803b15801561067c57600080fd5b505af1158015610690573d6000803e3d6000fd5b505050506040513d60208110156106a657600080fd5b505115156106b357600080fd5b50505050565b60055481565b60098054829081106106cd57fe5b600091825260209091200154600160a060020a0316905081565b60035481565b6106f56107ad565b151561070057600080fd5b60008054604051600160a060020a03909116907f8be0079c531659141344cd1fd0a4f28419497f9722a3daafe3b4186f6b6457e0908390a36000805473ffffffffffffffffffffffffffffffffffffffff19169055565b61075f6107ad565b151561076a57600080fd5b60055460045401421161077c57600080fd5b426004556201518090910260055560065560006003556007805460ff19169055565b600054600160a060020a031690565b600054600160a060020a0316331490565b600b5481565b600c5481565b600060055460045401421180156107e5575060065460035410155b15156107f057600080fd5b60075460ff161561080057600080fd5b61080a6001610889565b600a556108176002610889565b600b556108246003610889565b600c556007805460ff1916600117905590565b60086020526000908152604090205481565b600a5481565b60045481565b60065481565b6108636107ad565b151561086e57600080fd5b610877816108a8565b50565b600154600160a060020a031681565b60008060035483430340600190048115156108a057fe5b069392505050565b600160a060020a03811615156108bd57600080fd5b60008054604051600160a060020a03808516939216917f8be0079c531659141344cd1fd0a4f28419497f9722a3daafe3b4186f6b6457e091a36000805473ffffffffffffffffffffffffffffffffffffffff1916600160a060020a03929092169190911790555600a165627a7a72305820f8c50bff3d2a1764ec839a35d9867b3849cfd0e600b9b632435be29ee6dc64690029",
  "source": "pragma solidity ^0.4.24;\r\n\r\nimport \"./libs/StandardToken.sol\";\r\n\r\ncontract Ownable {\r\n  address private _owner;\r\n\r\n  event OwnershipTransferred(\r\n    address indexed previousOwner,\r\n    address indexed newOwner\r\n  );\r\n\r\n  /**\r\n   * @dev The Ownable constructor sets the original `owner` of the contract to the sender\r\n   * account.\r\n   */\r\n  constructor() internal {\r\n    _owner = msg.sender;\r\n    emit OwnershipTransferred(address(0), _owner);\r\n  }\r\n\r\n  /**\r\n   * @return the address of the owner.\r\n   */\r\n  function owner() public view returns(address) {\r\n    return _owner;\r\n  }\r\n\r\n  /**\r\n   * @dev Throws if called by any account other than the owner.\r\n   */\r\n  modifier onlyOwner() {\r\n    require(isOwner());\r\n    _;\r\n  }\r\n\r\n  /**\r\n   * @return true if `msg.sender` is the owner of the contract.\r\n   */\r\n  function isOwner() public view returns(bool) {\r\n    return msg.sender == _owner;\r\n  }\r\n\r\n  /**\r\n   * @dev Allows the current owner to relinquish control of the contract.\r\n   * @notice Renouncing to ownership will leave the contract without an owner.\r\n   * It will not be possible to call the functions with the `onlyOwner`\r\n   * modifier anymore.\r\n   */\r\n  function renounceOwnership() public onlyOwner {\r\n    emit OwnershipTransferred(_owner, address(0));\r\n    _owner = address(0);\r\n  }\r\n\r\n  /**\r\n   * @dev Allows the current owner to transfer control of the contract to a newOwner.\r\n   * @param newOwner The address to transfer ownership to.\r\n   */\r\n  function transferOwnership(address newOwner) public onlyOwner {\r\n    _transferOwnership(newOwner);\r\n  }\r\n\r\n  /**\r\n   * @dev Transfers control of the contract to a newOwner.\r\n   * @param newOwner The address to transfer ownership to.\r\n   */\r\n  function _transferOwnership(address newOwner) internal {\r\n    require(newOwner != address(0));\r\n    emit OwnershipTransferred(_owner, newOwner);\r\n    _owner = newOwner;\r\n  }\r\n}\r\n\r\ncontract ERC20Interface {\r\n    function totalSupply() public constant returns (uint);\r\n    function balanceOf(address tokenOwner) public constant returns (uint balance);\r\n    function allowance(address tokenOwner, address spender) public constant returns (uint remaining);\r\n    function transfer(address to, uint tokens) public returns (bool success);\r\n    function approve(address spender, uint tokens) public returns (bool success);\r\n    function transferFrom(address from, address to, uint tokens) public returns (bool success);\r\n    event Transfer(address indexed from, address indexed to, uint tokens);\r\n    event Approval(address indexed tokenOwner, address indexed spender, uint tokens);\r\n}\r\n\r\ncontract mockToken is StandardToken {\r\n    string public symbol = \"CLM\";\r\n    string public name = \"Caelum Token\";\r\n    uint8 public decimals = 8;\r\n    uint256 public totalSupply = 2100000000000000;\r\n\r\n    constructor () {\r\n        balances[msg.sender] = balances[msg.sender].add(100000 * 1e8);\r\n    }\r\n}\r\n\r\ncontract CaelumLottery is Ownable {\r\n\r\n    // What tokens will we send?\r\n    address public token = 0;\r\n    address public poolAddress = 0;\r\n\r\n    // How many users are participating for the lottery\r\n    uint public participantsCounter;\r\n\r\n    uint public lotteryStart;\r\n    uint public lotteryDuration;\r\n    uint public lotteryMinParticipants;\r\n\r\n    bool winnersAnnounced;\r\n\r\n    mapping (address => uint) public participantsList;\r\n\r\n    address[] public participants;\r\n\r\n    // Checks if still in lottery contribution period\r\n    modifier lotteryOngoing() {\r\n        require(now < lotteryStart + lotteryDuration);\r\n        _;\r\n    }\r\n\r\n    // Checks if lottery has finished AND the total amount of participants\r\n    // equals at least the mininmum required participants.\r\n    modifier lotteryFinished() {\r\n        require(now > lotteryStart + lotteryDuration);\r\n        _;\r\n    }\r\n\r\n    modifier lotteryCompleted() {\r\n        require(now > lotteryStart + lotteryDuration && participantsCounter >= lotteryMinParticipants);\r\n        _;\r\n    }\r\n\r\n    uint public WINNER1;\r\n    uint public WINNER2;\r\n    uint public WINNER3;\r\n\r\n    constructor () public {\r\n        participantsCounter = 0;\r\n    }\r\n\r\n    function () payable public {\r\n        participateLottery();\r\n    }\r\n\r\n    function resetLottery (uint _days, uint _participants) onlyOwner lotteryFinished public {\r\n        lotteryStart = now;\r\n        lotteryDuration = _days * 1 days;\r\n        lotteryMinParticipants = _participants;\r\n        participantsCounter = 0;\r\n        winnersAnnounced = false;\r\n    }\r\n\r\n    // Allow only 0.05 Ether deposits, one at a time.\r\n    function participateLottery () payable lotteryOngoing public returns (bool success) {\r\n        require(msg.value == 50 finney, \"Wrong amount sent.\");\r\n        participantsList[msg.sender] = msg.value;\r\n        participants.push(msg.sender);\r\n        participantsCounter++;\r\n        return true;\r\n    }\r\n\r\n    // Generally not safe to use the blockhash since this can be tampered by\r\n    // miners. The cost to tamper this however is nowhere near the cost of mining\r\n    // a full ethereum block, so there is no incentive to do this right now.\r\n    // Leave this public so anyone can call the end of the lottery.\r\n    //\r\n    // This is just a quick and dirty solution, do not use this code on valuable items!\r\n\r\n    function announceWinners () lotteryCompleted  public  returns (uint) {\r\n        require (!winnersAnnounced);\r\n        WINNER1 = random(1);\r\n        WINNER2 = random(2);\r\n        WINNER3 = random(3);\r\n        winnersAnnounced = true;\r\n    }\r\n\r\n    function random(uint blocksPast) internal view returns (uint) {\r\n        uint randomnumber = uint(blockhash(block.number - blocksPast)) % participantsCounter;\r\n        return randomnumber;\r\n    }\r\n\r\n    function creditWinners () public {\r\n        uint totalTokenAmount = ERC20Interface(token).balanceOf(this);\r\n\r\n        uint amountWinner1 = totalTokenAmount / 100 * 50;\r\n        uint amountWinner2 = totalTokenAmount / 100 * 30;\r\n        uint amountWinner3 = totalTokenAmount / 100 * 20;\r\n\r\n        totalTokenAmount = 0;\r\n\r\n        if(!ERC20Interface(token).transfer(participants[WINNER1], amountWinner1)) revert();\r\n        if(!ERC20Interface(token).transfer(participants[WINNER2], amountWinner2)) revert();\r\n        if(!ERC20Interface(token).transfer(participants[WINNER3], amountWinner3)) revert();\r\n\r\n    }\r\n\r\n\r\n}\r\n",
  "sourcePath": "C:\\Users\\steve\\Documents\\GitHub\\caelum\\caelum-lottery\\contracts\\caelumLottery.sol",
  "compiler": {
    "name": "solc",
    "version": "0.4.24+commit.e67f0147.Emscripten.clang"
  },
  "schemaVersion": "2.0.1",
  "updatedAt": "2018-11-20T20:57:46.798Z"
}